:100000000C9472000C947E000C947E000C947E0084
:100010000C947E000C947E000C947E000C947E0068
:100020000C947E000C947E000C947E000C947E0058
:100030000C947E000C947E000C947E000C947E0048
:100040000C947E000C947E000C947E000C947E0038
:100050000C947E000C947E000C947E000C947E0028
:100060000C947E000C947E000C947E000C947E0018
:100070000C947E000C947E000C947E000C947E0008
:100080000C947E000C947E000C947E000C947E00F8
:100090000C947E000C947E000C947E000C947E00E8
:1000A0000C947E000C947E000C947E000C947E00D8
:1000B0000C947E000C947E000C947E000C947E00C8
:1000C0000C947E000C947E000C947E000C947E00B8
:1000D0000C947E000C947E000C947E000C947E00A8
:1000E0000C947E0011241FBECFEFD1E2DEBFCDBF46
:1000F00000E00CBF0E9480000C944F020C940000A2
:10010000CF93DF93CDB7DEB72F970FB6F894DEBF4E
:100110000FBECDBFCE010F960E940501CE010F96F6
:100120000E941C0180E090E0A8E4B2E489839A83F5
:10013000AB83BC8320E030E04AE753E469817A81F5
:100140008B819C810E94BA01DC01CB018D839E834F
:10015000AF83B88720E030E040E85FE36D817E81C7
:100160008F8198850E94340188232CF481E090E0EF
:100170009A8789873FC020E03FEF4FE757E46D81C2
:100180007E818F8198850E94B50118164CF520E07C
:1001900030E040E251E469817A818B819C810E9448
:1001A000BA01DC01CB01BC01CD010E943901DC01A7
:1001B000CB019A87898789859A85892B09F4AECFE7
:1001C00089E190E09C878B878B859C850197F1F76F
:1001D0009C878B8789859A8501979A878987EBCF3A
:1001E0006D817E818F8198850E943901DC01CB0170
:1001F0009A87898789859A859E878D878D859E8533
:100200000197F1F79E878D8789CFCF93DF931F9258
:100210001F92CDB7DEB79A83898384E290E0FC0118
:10022000208184E290E02062FC01208300000F9096
:100230000F90DF91CF910895CF93DF931F921F927C
:10024000CDB7DEB79A83898385E290E0FC013081E7
:1002500085E290E020E22327FC01208300000F903C
:100260000F90DF91CF9108950E94680108F481E01A
:1002700008950E94940188F09F5798F0B92F99270C
:10028000B751B0F0E1F0660F771F881F991F1AF081
:10029000BA95C9F714C0B13091F00E94AE01B1E037
:1002A00008950C94AE01672F782F8827B85F39F036
:1002B000B93FCCF3869577956795B395D9F73EF41A
:1002C00090958095709561957F4F8F4F9F4F0895C2
:1002D000990F0008550FAA0BE0E8FEEF1616170657
:1002E000E807F907C0F012161306E407F50798F0BF
:1002F000621B730B840B950B39F40A2661F0232BD8
:10030000242B252B21F408950A2609F4A140A69553
:100310008FEF811D811D089557FD9058440F551F83
:1003200059F05F3F71F04795880F97FB991F61F077
:100330009F3F79F087950895121613061406551FEE
:10034000F2CF4695F1DF08C0161617061806991F5A
:10035000F1CF86957105610508940895E894BB274F
:1003600066277727CB0197F908950E94680108F462
:100370008FEF08950E94CD010C943E020E9430023E
:1003800038F00E94370220F0952311F00C942702D8
:100390000C942D0211240C94AF010E948C0170F377
:1003A000959FC1F3950F50E0551F629FF001729F1A
:1003B000BB27F00DB11D639FAA27F00DB11DAA1F29
:1003C000649F6627B00DA11D661F829F2227B00D76
:1003D000A11D621F739FB00DA11D621F839FA00D01
:1003E000611D221F749F3327A00D611D231F849F51
:1003F000600D211D822F762F6A2F11249F575040A8
:100400009AF0F1F088234AF0EE0FFF1FBB1F661F22
:10041000771F881F91505040A9F79E3F510580F0EB
:100420000C9427020C94AF015F3FE4F3983ED4F3A1
:10043000869577956795B795F795E7959F5FC1F78F
:10044000FE2B880F911D9695879597F9089597F93A
:100450009F6780E870E060E008959FEF80EC08956A
:1004600000240A9416161706180609060895002493
:100470000A9412161306140605060895092E03940D
:10048000000C11F4882352F0BB0F40F4BF2B11F481
:1004900060FF04C06F5F7F4F8F4F9F4F0895F894A8
:0204A000FFCF8C
:00000001FF
