:100000000C9463020C9456070C9494020C94940282
:100010000C9494020C9494020C9494020C94940208
:100020000C9494020C9494020C9494020C949402F8
:100030000C9494020C9494020C9494020C949402E8
:100040000C9494020C9422070C9494020C94940245
:100050000C9494020C9494020C9494020C94440614
:100060000C9494020C94B8060C948E060C94940292
:100070000C9494020C94EE060C9494020C9494024A
:100080000C9494020C9494020C9494020C94940298
:100090000C9494020C9494020C9494020C94940288
:1000A0000C9494020C9494020C9494020C94940278
:1000B0000C9494020C9494020C9494020C94940268
:1000C0000C9494020C9494020C9494020C94940258
:1000D0000C9494020C9494020C9494020C94940248
:1000E0000C9494020C94E5020C94F3040C94FC021E
:1000F0000C9453040C940E030C94DD020C940A032C
:100100000C948B040C941C030C94E1020C940403D7
:100110000C94E2030C9400030C94B5030C94CB02F2
:100120000C9405040C94F2020C94EC020C94E90279
:100130000C9418030C9412030C94F6020C94F10323
:100140000C949C070C94C60200407A10F35A00A04D
:10015000724E18090010A5D4E80000E87648170090
:1001600000E40B54020000CA9A3B000000E1F505D0
:10017000000080969800000040420F000000A0861A
:1001800001000000102700000000E803000000004C
:100190006400000000000A000000000001000000F0
:1001A00000002C76D888DC674F0823DFC1DFAE590A
:1001B000E1B1B796E5E3E453C63AE651997696E89D
:1001C000E6C28426EB898C9B62ED407C6FFCEFBC21
:1001D0009C9F40F2BAA56FA5F490055A2AF75C934C
:1001E0006B6CF9676DC11BFCE0E40D47FEF520E682
:1001F000B500D0ED902E0300943577050080841E65
:10020000080000204E0A000000C80C333333330FBF
:10021000986E12831141EF8D2114893BE65516CF5C
:10022000FEE6DB18D1844B381BF77C1D901DA4BB68
:10023000E424203284725E228100C9F124ECA1E51D
:100240003D27426F74C3B36E2070726573696F6E21
:1002500061646F2E20496E6772657365204E207051
:1002600061726120646566696E697220656C2074D4
:1002700069656D706F2064652076697375616C695E
:100280007A616369C3B36E20656E205053493A00AA
:10029000446F6E64652054203D204E202A20332078
:1002A000736567756E646F732E00416C20707265A4
:1002B00073696F6E617220656C20626F74C3B36E78
:1002C0002C207365206C6520736F6C6963697461A1
:1002D00072C3A120696E677265736172204E2070CF
:1002E000617261206D6F7374726172205053492086
:1002F000647572616E7465205420736567756E64F1
:100300006F732E0053697374656D61206465206D91
:100310006564696369C3B36E206465207072657338
:1003200069C3B36E004572726F723A204E206465E5
:1003300062652073657220756E2076616C6F722025
:10034000706F73697469766F2E0020736567756EC0
:10035000646F73005469656D706F20646520766901
:100360007375616C697A616369C3B36E203D200067
:100370004E203D2000496E6772657365204E20282F
:1003800076616C6F7220706F73697469766F293A49
:1003900020005469656D706F2064652076697375FF
:1003A000616C697A616369C3B36E20656E205053D6
:1003B000492066696E616C697A61646F2E00000085
:1003C0002100240027002A002D0030003300010105
:1003D0000000040107010A01000022002500280096
:1003E0002B002E003100340002010000050108013D
:1003F0000B010505050507050808080802020202A9
:100400000A0A0808040404040101010101010101B0
:100410000303030303030303040707070C0C0C0C7B
:100420000C0C0C0C02020202060606060606060664
:100430000B0B0B0B0B0B0B0B0102102020080810F1
:100440002040102040800201020108040201010244
:10045000040810204080804020100804020180041D
:100460000201804020100804020108040201010278
:100470000408102040800102040810204080000081
:100480000A0B02090C0D0E0807030401000000000E
:10049000000000000000000000000000000000005C
:1004A0000000000000000000000012111000000019
:1004B000000000000000000000000000000000003C
:1004C000000000009C0711241FBECFEFD1E2DEBF69
:1004D000CDBF00E00CBF22E0A0E3B2E001C01D925E
:1004E000AA3FB207E1F712E0A0E0B2E0E2EFF0E2EB
:1004F00000E00BBF02C007900D92A033B107D9F7FF
:1005000012E0C3E6D2E000E006C021970109802F87
:10051000FE010E946F10C236D10780E00807A9F7DC
:100520000E942B080C9477100C940000282F30E0C8
:10053000F901E258FB4F9491F901E85CFB4F4491BB
:100540002E503C4FF9012491222309F435C0992300
:1005500011F191509231F8F4E92FF0E08827EC5432
:10056000FD4F8F4F0C946F10E502E902C602DD02C9
:10057000E102CB02EC02F202F602FC0200030403E9
:100580000A030E03CB02120318031C0380918000A0
:100590008F7780938000E22FF0E0EE0FFF1FE8528C
:1005A000FC4FA591B4918FB7F894EC91611148C0BC
:1005B00040954E234C938FBF0895809180008F7D8E
:1005C000E8CF80918000877FE4CF84B58F7784BDAA
:1005D000E2CF84B58F7DFBCF8091B0008F77809381
:1005E000B000D9CF8091B0008F7DF9CF809190007D
:1005F0008F7780939000CFCF809190008F7DF9CF3F
:1006000080919000877FF5CF8091A0008F778093B5
:10061000A000C1CF8091A0008F7DF9CF8091A00074
:10062000877FF5CF809120018F7780932001B3CF12
:10063000809120018F7DF9CF80912001877FF5CFB8
:100640004E2BB8CFCF93DF9390E0FC01E85CFB4FDB
:1006500024918E509C4FFC0184918823C9F090E036
:10066000880F991FFC01E254FC4FA591B491FC0145
:10067000E852FC4FC591D49161110DC09FB7F89419
:100680008C91209582238C938881282328839FBF77
:10069000DF91CF910895623051F49FB7F8943C9167
:1006A000822F809583238C93E8812E2BEFCF8FB7F9
:1006B000F894EC912E2B2C938FBFEACF3FB7F89490
:1006C0008091390290913A02A0913B02B0913C0294
:1006D00026B5A89B05C02F3F19F00196A11DB11D9D
:1006E0003FBFBA2FA92F982F8827BC01CD01620FD9
:1006F000711D811D911D42E0660F771F881F991F94
:100700004A95D1F708958F929F92AF92BF92CF9260
:10071000DF92EF92FF924B015C010E945E036B013E
:100720007C010E945E036C197D098E099F09683E59
:10073000734081059105A8F321E0821A9108A10870
:10074000B10888EEC80E83E0D81EE11CF11C8114AC
:100750009104A104B10429F7FF90EF90DF90CF90AE
:10076000BF90AF909F908F900895AF92BF92CF921D
:10077000DF92EF92FF920F931F93CF93DF936C0161
:100780007B018B01040F151FEB015E01AE18BF0842
:10079000C017D10759F06991D601ED91FC910190F4
:1007A000F081E02DC6011995892B79F7C501DF91FC
:1007B000CF911F910F91FF90EF90DF90CF90BF905E
:1007C000AF900895FC01538D448D252F30E0842F88
:1007D00090E0821B930B541710F0CF960895019769
:1007E0000895FC01918D828D981761F0A28DAE0F56
:1007F000BF2FB11D5D968C91928D9F5F9F73928FDD
:1008000090E008958FEF9FEF0895FC01918D828D08
:10081000981731F0828DE80FF11D858D90E00895D5
:100820008FEF9FEF08952FB7F89480913D0290913C
:100830003E02A0913F02B09140022FBF8093490237
:1008400090934A02A0934B02B0934C0281E492E051
:100850000E94050497FF26C02FB7F89480913D02AF
:1008600090913E02A0913F02B09140022FBF409173
:10087000490250914A0260914B0270914C02841BD4
:10088000950BA60BB70B4091450250914602609123
:1008900047027091480284179507A607B707B0F280
:1008A0008FEF9FEF0895FC01918D228D892F90E0AD
:1008B000805C9F4F821B91098F739927089581E473
:1008C00092E00E94530421E0892B09F420E0822F5A
:1008D0000895FC01A48DA80FB92FB11DA35ABF4FD5
:1008E0002C91848D90E001968F739927848FA6892F
:1008F000B7892C93A089B1898C91837080648C9383
:10090000938D848D981306C00288F389E02D808131
:100910008F7D80830895EF92FF920F931F93CF9363
:10092000DF93EC0181E0888F9B8D8C8D98131AC02A
:10093000E889F989808185FF15C09FB7F894EE8911
:10094000FF896083E889F98980818370806480836E
:100950009FBF81E090E0DF91CF911F910F91FF90B9
:10096000EF900895F62E0B8D10E00F5F1F4F0F7361
:100970001127E02E8C8D8E110CC00FB607FCFACF1C
:10098000E889F989808185FFF5CFCE010E9469044D
:10099000F1CFEB8DEC0FFD2FF11DE35AFF4FF082ED
:1009A0009FB7F8940B8FEA89FB8980818062CFCF53
:1009B0000F931F93CF93DF938C01D0E0C0E0F80139
:1009C000EC0FFD1F6491662341F081E492E00E94E8
:1009D0008B04892B11F02196F2CFCE01DF91CF91BC
:1009E0001F910F910895CF93DF93EC01888D882399
:1009F000B9F0AA89BB89E889F9898C9185FD03C082
:100A0000808186FD0DC00FB607FCF7CF8C9185FF66
:100A1000F2CF808185FFEDCFCE010E946904E9CF3E
:100A2000DF91CF91089580E090E0892B29F00E941A
:100A30005F0481110E94000080E090E0892B49F062
:100A400080E090E0892B29F00E94000081110E9433
:100A5000000080E090E0892B49F080E090E0892B55
:100A600029F00E94000081110E94000080E090E0C7
:100A7000892B49F080E090E0892B29F00E9400004A
:100A800081110C9400000895CF93DF93C82F682F35
:100A900061708091F5020E949602D0E0BE017595CA
:100AA000679561708091F6020E949602BE0175956D
:100AB00067957595679561708091F7020E9496021F
:100AC00023E0D595C7952A95E1F76C2F6170809149
:100AD000F8020E94960260E08091F4020E94960261
:100AE00061E08091F4020E94960260E08091F4023D
:100AF0000E9496028091F902882339F08BE891E0F8
:100B00000197F1F7DF91CF91089583EC90E0F8CF52
:100B1000CF93C82F60E08091F3020E9496028C2F41
:100B200082958F700E9444058C2F8F700E9444051F
:100B30008091F902882339F062E070E080E090E073
:100B4000CF910C94830383EC90E00197F1F7CF9160
:100B5000089581E00E94880562E070E080E090E006
:100B60000C948303EF92FF920F931F93CF938C010A
:100B700083ECE82EF12CF801C1918F01CC23F9F020
:100B800061E08091F3020E9496028C2F85958595F5
:100B9000859585950E9444058C2F8F700E94440591
:100BA0008091F902882339F062E070E080E090E003
:100BB0000E948303E0CFC7010197F1F7DCCFCF910B
:100BC0001F910F91FF90EF900895FC01019000207C
:100BD000E9F73197AF01481B590BBC0181E492E062
:100BE0000C94B503CF93DF930E94D804EC0183E10A
:100BF00092E00E94E5058C0F9D1FDF91CF91089533
:100C00008F929F92AF92BF920F931F93CF93DF93D8
:100C1000CDB7DEB7A1970FB6F894DEBF0FBECDBF3C
:100C200019A2423008F44AE08E010F5D1F4F842E56
:100C3000912CB12CA12CA50194010E944D10E62FFE
:100C4000B901CA01EA30F4F4E05DD801EE938D01F8
:100C5000232B242B252B79F790E080E0109719F0B7
:100C6000CD010E94E505A1960FB6F894DEBF0FBE38
:100C7000CDBFDF91CF911F910F91BF90AF909F900B
:100C80008F900895E95CE1CF1F920F920FB60F92FB
:100C900011242F933F938F939F93AF93BF93809192
:100CA0003D0290913E02A0913F02B09140023091EE
:100CB000380223E0230F2D3758F50196A11DB11DF1
:100CC0002093380280933D0290933E02A0933F020E
:100CD000B09340028091390290913A02A0913B0278
:100CE000B0913C020196A11DB11D809339029093F1
:100CF0003A02A0933B02B0933C02BF91AF919F9107
:100D00008F913F912F910F900FBE0F901F901895CC
:100D100026E8230F0296A11DB11DD2CF1F920F927C
:100D20000FB60F9211240BB60F922F933F934F9350
:100D30005F936F937F938F939F93AF93BF93EF9343
:100D4000FF9381E492E00E946904FF91EF91BF91CB
:100D5000AF919F918F917F916F915F914F913F9153
:100D60002F910F900BBE0F900FBE0F901F901895F4
:100D70001F920F920FB60F9211240BB60F922F9362
:100D80008F939F93EF93FF93E0915102F091520262
:100D90008081E0915702F091580282FD1DC0908140
:100DA00080915A028F5F8F7320915B02821741F00E
:100DB000E0915A02F0E0EF5BFD4F958F80935A026D
:100DC000FF91EF919F918F912F910F900BBE0F90FC
:100DD0000FBE0F901F9018958081F2CF1F920F9237
:100DE0000FB60F9211240BB60F922F933F934F9390
:100DF0005F938F939F93EF93FF932091E002309145
:100E0000E1022115310579F080917C00877090E036
:100E10004091780050917900880F991F820F931F9D
:100E2000FC0151834083FF91EF919F918F915F91DE
:100E30004F913F912F910F900BBE0F900FBE0F90CF
:100E40001F9018951F920F920FB60F9211248F9337
:100E50009F93AF93BF93809135028823F1F08091E7
:100E600030028F5F80933002809130028230A8F090
:100E7000109230028091310290913202A09133029F
:100E8000B09134020196A11DB11D8093310290935F
:100E90003202A0933302B0933402BF91AF919F917D
:100EA0008F910F900FBE0F901F9018951F920F9269
:100EB0000FB60F9211240BB60F922F933F934F93BF
:100EC0005F936F937F938F939F93AF93BF93EF93B2
:100ED000FF9381E08093370280933602F89410925A
:100EE00031021092320210923302109234021092A8
:100EF000300210928500109284007894EFE6F0E0C2
:100F00009081926090838093350282E492E00E9407
:100F1000F205FF91EF91BF91AF919F918F917F91DA
:100F20006F915F914F913F912F910F900BBE0F905A
:100F30000FBE0F901F90189510924402109243021A
:100F400088EE93E0A0E0B0E08093450290934602E3
:100F5000A0934702B093480285E092E0909342024A
:100F60008093410285EC90E090934E0280934D0275
:100F700084EC90E09093500280934F0280EC90E0DC
:100F8000909352028093510281EC90E0909354022E
:100F90008093530282EC90E0909356028093550226
:100FA00086EC90E0909358028093570210925A0278
:100FB00010925B0210925C0210925D0286E18093B7
:100FC000F30287E18093F40288E18093F50289E1DE
:100FD0008093F6028AE18093F7028BE18093F80216
:100FE0001092F9028091E0029091E102892B31F494
:100FF00083EE92E09093E1028093E0021092E4028B
:101000001092E3021092E6021092E5021092E802BA
:101010001092E7021092EA021092E9021092EC029A
:101020001092EB021092EE021092ED021092F0027A
:101030001092EF021092F2021092F1028091DE0201
:101040009091DF02892B31F482EE92E09093DF02DF
:101050008093DE020895CF93DF93CDB7DEB760971C
:101060000FB6F894DEBF0FBECDBF789484B5826012
:1010700084BD84B5816084BD85B5826085BD85B53C
:10108000816085BD80916E00816080936E001092BA
:101090008100809181008260809381008091810035
:1010A00081608093810080918000816080938000C6
:1010B0008091B10084608093B1008091B000816024
:1010C0008093B00080919100826080939100809124
:1010D0009100816080939100809190008160809365
:1010E00090008091A10082608093A1008091A10076
:1010F00081608093A1008091A00081608093A00016
:101100008091210182608093210180912101816081
:101110008093210180912001816080932001809142
:101120007A00846080937A0080917A008260809354
:101130007A0080917A00816080937A0080917A00B1
:10114000806880937A001092C100E0915102F09182
:10115000520282E08083E0914D02F0914E021082B3
:10116000E0914F02F09150028FEC8083109259026F
:10117000E0915502F091560286E08083E09153029F
:10118000F0915402808180618083E0915302F0915C
:101190005402808188608083E0915302F091540270
:1011A000808180688083E0915302F09154028081B5
:1011B0008F7D808384E093E00E94F2058AEA92E0CA
:1011C0000E94F20580E992E00E94F20561E08091C0
:1011D000F3020E94220361E08091F4020E94220344
:1011E00061E08091F5020E94220361E08091F602A5
:1011F0000E94220361E08091F7020E94220361E0D5
:101200008091F8020E94220360E08091F3020E9424
:10121000960260E08091F4020E94960260E0809164
:10122000F5020E94960260E08091F6020E9496020A
:1012300060E08091F7020E94960260E08091F802DF
:101240000E94960262E370E080E090E00E948303D7
:1012500083E00E94440565E070E080E090E00E9439
:10126000830383E00E94440565E070E080E090E045
:101270000E94830383E00E94440561E070E080E007
:1012800090E00E94830382E00E94440561E070E0E8
:1012900080E090E00E94830388E20E9488058CE051
:1012A0000E94880586E00E9488050E94A905F8949E
:1012B00080E480937C008FE080937E008FE88093B1
:1012C0007A0080917A00806480937A0080917A001D
:1012D00086FDFCCF7894F8941092800010928100E3
:1012E000109285001092840083E89EE1909389001B
:1012F0008093880080918100886080938100809134
:101300008100856080938100789460E086E30E948C
:10131000220360E087E30E94220360E088E30E94EA
:10132000220360E089E30E94220362E085E10E94DB
:10133000220380916900826080936900E89A83E2C9
:10134000A82EB12CC12CD12C760110E0F8948091FC
:101350007C00887F812B80937C00C5010197F1F789
:1013600080917A00806480937A0080917A0084FF73
:10137000FCCF80917A00806180937A006091780040
:1013800070917900789490E080E00E94FC0D20E05C
:1013900030E040EA50E40E945D0E20E030EC4FE780
:1013A00054E40E94A20F20E030E04AE754E40E9497
:1013B0005D0E20E030E044E352E40E94A20F20E002
:1013C00030E040E351E40E94360F9B01AC01C701BD
:1013D000B6010E94360F6B017C011F5F143009F0CB
:1013E000B5CF20E030E040E85EE30E945D0E6B0187
:1013F0007C010E94A905809137028111B0C08E0145
:101400000F5F1F4F21E045E0C701B6010E94880B26
:1014100086E192E00E94B205C8010E94B2058AE10D
:1014200092E00E94B20500913602002309F467C1E0
:1014300081E492E00E945304892B09F460C185E79E
:1014400093E00E94D8040E941304FC0197FDD7C0CA
:101450008D32910521F0C0970A9708F0C9C0C12CC0
:10146000D12C760110E0E130F105D9F0ED32F10533
:1014700009F4C3C0CF01C0970A9798F4AAE0B0E07E
:10148000A70196010E941B0F6F01FF0FEE08FF08D6
:10149000C60ED71EE81EF91E80E3C81AD108E1085F
:1014A000F10881E492E00E94F1030E941304FC0120
:1014B000C0970A97C0F2E130F105A9F2112341F07B
:1014C000F094E094D094C094C11CD11CE11CF11C98
:1014D00085E293E01C141D0494F5C092000280E79D
:1014E00093E00E94D804C701B6017727882799277F
:1014F0004AE00E94000683E192E00E94E50584E54F
:1015000093E00E94D8046091000270E090E080E0D7
:101510000E94FE0D20E030E040E450E40E945D0EA9
:101520006B017C01AC019B010E944810882309F4E7
:101530006AC084E292E00E94E5058AE493E00E949A
:10154000F2051092360281E492E00E945304892B46
:1015500009F4D5C081E492E00E94F103F4CF21EEBA
:101560003AE744E15EE3C701B6010E945D0E8E01D9
:101570000F5F1F4F21E045E00E94880B86E192E05B
:101580000E94B205C8010E94B2058FE192E00E945C
:10159000B2056091310270913202809133029091D4
:1015A00034020E94FC0D6B017C016091000270E02E
:1015B00090E080E00E94FE0D20E030E040E450E446
:1015C0000E945D0E9B01AC01C701B6010E94431051
:1015D00087FD29CF1092370280916F008D7F809315
:1015E0006F001092350282E993E00E94F2051BCF52
:1015F00081E492E00E94F10326CF102F52CFC12C3C
:10160000D12C760165CF2FEF3FEF4FE75FE7C701A2
:10161000B6010E94481081110DC02FEF3FEF4FE738
:101620005FE7C701B6010E94F70D18161CF488E2A7
:1016300092E081CF2FEF3FEF4FE75FE4C701B601A4
:101640000E94431018161CF48CE292E074CF2FEF26
:101650003FEF4FE75FECC701B6010E94F70D87FD32
:10166000F3CF2AE037ED43EA5BE3C701B6010E94FE
:10167000360F2B013C010E9414106B017C010E946B
:10168000FC0D9B01AC01C301B2010E94350F2B017F
:101690003C014AE0C701B6010E9400066EE281E407
:1016A00092E00E948B0420E030E040E251E4C3016C
:1016B000B2010E945D0E2B013C010E9414106B01CF
:1016C000F12CE12C4AE0C701B6010E940006C701D7
:1016D000B6010E94FC0D9B01AC01C301B2010E9446
:1016E000350F20E030E040E251E40E945D0E0E94A0
:1016F000141090E080E04AE00E9400061ECF64E6ED
:1017000070E080E090E00E9483030E9413051ACEEF
:10171000EF920F931F93CF93DF93E80134E047FDDF
:1017200034E1042E000C550B57FF03C05195419531
:101730005109E32E022F242FAE010E94A60BCE01E9
:10174000DF91CF911F910F91EF9008958F929F920B
:10175000AF92BF92CF92DF92EF92FF920F931F93BF
:10176000CF93DF9300D000D000D0CDB7DEB76A01B1
:10177000F22EB02E102FFBE3AF2EA01608F41BE3C1
:101780001F5F012F27E0AE014F5F5F4F0E941F0DCB
:10179000BC018981982F9970913009F44EC09BE269
:1017A000E1FC04C09E2D9170E0FC49C05E2D50719B
:1017B000E82FE87083FF55C084E0911101C083E0F9
:1017C000EF2DE81B8F1508F0E0E0D6018E2F20E208
:1017D0005523C9F1992329F0D6019C93C60101969E
:1017E0006C0196012D5F3F4FE2FE33C08EE4D601BF
:1017F0008C9391E411969C93119712968C93D90136
:101800008E2F90E281112AC0E20FF32FF11D10827A
:101810008EEF9FEF29960FB6F894DEBF0FBECDBFB7
:10182000DF91CF911F910F91FF90EF90DF90CF90BC
:10183000BF90AF909F908F9008959DE2B7CF90E2B8
:10184000B5CF2D9381508111FCCFCE0ED11CE0E09D
:10185000C1CF8EE6D6018C9391E6CCCF9D9381507B
:10186000D1CF482F447082FF3DC084E0911101C068
:1018700083E08F1510F4EF2DE81BD6018E2F20E2A8
:10188000552309F1992329F0D6019C93C6010196AD
:101890006C0196012D5F3F4FE2FE1BC089E4D6012B
:1018A0008C938EE411968C93119786E412968C9308
:1018B000D9018E2F90E2882309F4A6CF9D93815001
:1018C000FACF2D9381508111FCCFCE0ED11CE0E0D8
:1018D000D9CF89E6D6018C938EE611968C93119719
:1018E00086E6E4CF9B0177FF02C030E020E0A1E074
:1018F000B0E0911102C0B0E0A0E0F9013196AE0F66
:10190000BF1F8B2C912CBB2009F461C05401EFEF59
:10191000AE1ABE0AAA0DBB1DFA161B0619F014F06A
:101920004F2D4A1B511188C0E3FC59C07601A42FEA
:10193000B0E2A1114FC0C40ED11C992309F45BC0C1
:1019400040E0D6011196F60190836D01552309F40C
:1019500048C0012F060F9A81582F507184FF03C091
:10196000913309F4015010160CF047C0093008F00B
:1019700008E0EEE2FE2E5B01A01AB1088501919409
:10198000819491082F3F320729F4D601FC92F60189
:1019900031966F016217730794F1021713077CF5F4
:1019A000DB01A21BB30BAA24A394B12CAC0EBD1E69
:1019B000AA0DBB1D11968C9121503109D6011196AB
:1019C00028153905F4F0F60180836D01DBCFB12CC9
:1019D000A12CA0CFF701B1937F01A150AACF911103
:1019E000B0CFD601942F50E302C05D939150911176
:1019F000FCCFC40ED11C40E0ACCF01E0BACF80E3F5
:101A0000DBCF6217730731F4963388F4953311F402
:101A1000552369F0F6018083FD01842F90E2811146
:101A200008C0A40FB11D1C9290E080E0F3CE81E3CA
:101A3000F1CF91938150F3CF911183CF8ACF28308A
:101A400008F027E03327DA01990F311D87FD9160F7
:101A500000966105710539F432602E5F3D9330E3E5
:101A60002A95E1F708959F3F30F0803871056105B0
:101A700009F03C5F3C5F3D93913008F08068911D18
:101A8000DF93CF931F930F93FF92EF92192F987FBD
:101A90009695E92F96959695E90FFF27EE55FE4FFF
:101AA00099273327EE24FF24A701E7010590089426
:101AB000079428F4360FE71EF81E491F511D660FC4
:101AC000771F881F991F0694A1F70590079428F4A3
:101AD000E70EF81E491F561FC11D770F881F991F5B
:101AE000661F0694A1F70590079428F4F80E491F85
:101AF000561FC71FD11D880F991F661F771F069499
:101B0000A1F70590079420F4490F561FC71FD81F4F
:101B1000990F661F771F881F0694A9F78491109567
:101B2000177041F0D695C79557954795F794E79468
:101B30001A95C1F7E8E4F1E0689415901591359194
:101B40006591959105907FE27395E118F10A430B39
:101B5000560BC90BD009C0F7E10CF11E431F561FED
:101B6000C91FD01D7EF4703311F48A95E6CFE89436
:101B7000015030F0080F0AF40027021708F4202F54
:101B80002395022F7A3328F079E37D932A95E9F79C
:101B900010C07D932A9589F6069497956795379599
:101BA00017951794E118F10A430B560BC90BD0098E
:101BB00098F023957E9173957A3308F070E37C93C7
:101BC0002013B8F77E9170617D9330F0839571E3B7
:101BD0007D9370E32A95E1F71124EF90FF900F9128
:101BE0001F91CF91DF91992787FD909508950E94CD
:101BF000390E08F481E00895E89409C097FB3EF49B
:101C000090958095709561957F4F8F4F9F4F992349
:101C1000A9F0F92F96E9BB279395F69587957795C7
:101C20006795B795F111F8CFFAF4BB0F11F460FF87
:101C30001BC06F5F7F4F8F4F9F4F16C0882311F0DF
:101C400096E911C0772321F09EE8872F762F05C0F3
:101C5000662371F096E8862F70E060E02AF09A958E
:101C6000660F771F881FDAF7880F9695879597F983
:101C70000895990F0008550FAA0BE0E8FEEF16161D
:101C80001706E807F907C0F012161306E407F50770
:101C900098F0621B730B840B950B39F40A2661F0E4
:101CA000232B242B252B21F408950A2609F4A14087
:101CB000A6958FEF811D811D08950E94700E0C94D2
:101CC000E10E0E94D30E38F00E94DA0E20F0952328
:101CD00011F00C94CA0E0C94D00E11240C94150F14
:101CE0000E94F20E70F3959FC1F3950F50E0551FBF
:101CF000629FF001729FBB27F00DB11D639FAA2761
:101D0000F00DB11DAA1F649F6627B00DA11D661FAF
:101D1000829F2227B00DA11D621F739FB00DA11DD0
:101D2000621F839FA00D611D221F749F3327A00D8A
:101D3000611D231F849F600D211D822F762F6A2F26
:101D400011249F5750409AF0F1F088234AF0EE0F8B
:101D5000FF1FBB1F661F771F881F91505040A9F7B8
:101D60009E3F510580F00C94CA0E0C94150F5F3FF6
:101D7000E4F3983ED4F3869577956795B795F795F4
:101D8000E7959F5FC1F7FE2B880F911D969587956C
:101D900097F9089597F99F6780E870E060E00895EB
:101DA0009FEF80EC089500240A9416161706180673
:101DB0000906089500240A9412161306140605064F
:101DC0000895092E0394000C11F4882352F0BB0FE0
:101DD00040F4BF2B11F460FF04C06F5F7F4F8F4F43
:101DE0009F4F089557FD9058440F551F59F05F3F7E
:101DF00071F04795880F97FB991F61F09F3F79F02D
:101E000087950895121613061406551FF2CF4695AE
:101E1000F1DF08C0161617061806991FF1CF869530
:101E20007105610508940895E894BB276627772714
:101E3000CB0197F908950E94260FA59F900DB49F9E
:101E4000900DA49F800D911D11240895A29FB001B3
:101E5000B39FC001A39F700D811D1124911DB29FDE
:101E6000700D811D1124911D08955058BB27AA277C
:101E70000E944D0F0C94E10E0E94D30E38F00E9488
:101E8000DA0E20F039F49F3F19F426F40C94D00EAA
:101E90000EF4E095E7FB0C94CA0EE92F0E94F20EB7
:101EA00058F3BA17620773078407950720F079F48F
:101EB000A6F50C94140F0EF4E0950B2EBA2FA02D5E
:101EC0000B01B90190010C01CA01A0011124FF27E7
:101ED000591B99F0593F50F4503E68F11A16F040E2
:101EE000A22F232F342F4427585FF3CF46953795E1
:101EF0002795A795F0405395C9F77EF41F16BA0BA6
:101F0000620B730B840BBAF09150A1F0FF0FBB1F53
:101F1000661F771F881FC2F70EC0BA0F621F731F9C
:101F2000841F48F4879577956795B795F7959E3FF9
:101F300008F0B0CF9395880F08F09927EE0F97958A
:101F4000879508950E94B60F0C94E10E0E94DA0E58
:101F500058F00E94D30E40F029F45F3F29F00C9412
:101F6000CA0E51110C94150F0C94D00E0E94F20E53
:101F700068F39923B1F3552391F3951B550BBB27B8
:101F8000AA2762177307840738F09F5F5F4F220FFD
:101F9000331F441FAA1FA9F335D00E2E3AF0E0E8F4
:101FA00032D091505040E695001CCAF72BD0FE2F3E
:101FB00029D0660F771F881FBB1F261737074807D2
:101FC000AB07B0E809F0BB0B802DBF01FF2793588A
:101FD0005F4F3AF09E3F510578F00C94CA0E0C9476
:101FE000150F5F3FE4F3983ED4F386957795679598
:101FF000B795F7959F5FC9F7880F911D96958795BF
:1020000097F90895E1E0660F771F881FBB1F6217DD
:1020100073078407BA0720F0621B730B840BBA0B9B
:10202000EE1F88F7E09508950E94FA0E88F09F57FA
:1020300098F0B92F9927B751B0F0E1F0660F771FEC
:10204000881F991F1AF0BA95C9F714C0B13091F0E2
:102050000E94140FB1E008950C94140F672F782F8D
:102060008827B85F39F0B93FCCF3869577956795A7
:10207000B395D9F73EF490958095709561957F4F13
:102080008F4F9F4F08950E94390E08F48FEF0895E7
:102090000E94390E880B990B0895A1E21A2EAA1BF3
:1020A000BB1BFD010DC0AA1FBB1FEE1FFF1FA21708
:1020B000B307E407F50720F0A21BB30BE40BF50B05
:1020C000661F771F881F991F1A9469F7609570958E
:1020D000809590959B01AC01BD01CF010895EE0F55
:1020E000FF1F881F8BBF0790F691E02D1994F8947D
:0220F000FFCF20
:1020F20001000000008B04B503E203F3045304F172
:102102000305040D0A00503A2000206B50610020A4
:10211200505349006E616E00696E66006F7666000C
:00000001FF
