:100000000C94D2000C94F3000C94F3000C94F300C5
:100010000C94F3000C94F3000C94F3000C94F30094
:100020000C94F3000C94F3000C94F3000C94F30084
:100030000C94F3000C94F3000C94F3000C94F30074
:100040000C94F3000C94F3000C94F3000C94F30064
:100050000C94F3000C94F3000C94F3000C941A012C
:100060000C94F3000C94F3000C94F3000C94F30044
:100070000C94F3000C94F3000C94F3000C94F30034
:100080000C94F3000C94F3000C94F3000C94F30024
:100090000C94F3000C94F3000C94F3000C94F30014
:1000A0000C94F3000C94F3000C94F3000C94F30004
:1000B0000C94F3000C94F3000C94F3000C94F300F4
:1000C0000C94F3000C94F3000C94F3000C94F300E4
:1000D0000C94F3000C94F3000C94F3000C94F300D4
:1000E0000C94F30000002200250028002B002E00B5
:1000F0003100340002010000050108010B0100007D
:100100002100240027002A002D00300033000101C7
:100110000000040107010A01050505050705080897
:100120000808020202020A0A080804040404010181
:100130000101010101010303030303030303040796
:1001400007070C0C0C0C0C0C0C0C0202020206062D
:100150000606060606060B0B0B0B0B0B0B0B010220
:1001600010202008081020401020408002010201C9
:100170000804020101020408102040808040201081
:1001800008040201800402018040201008040201DA
:100190000804020101020408102040800102040842
:1001A0001020408011241FBECFEFD1E2DEBFCDBFB3
:1001B00000E00CBF12E0A0E0B2E0E2E8F5E000E011
:1001C0000BBF02C007900D92A030B107D9F722E013
:1001D000A0E0B2E001C01D92A930B207E1F70E9491
:1001E00064010C94BF020C9400003FB7F894809116
:1001F000050290910602A0910702B091080226B56F
:10020000A89B05C02F3F19F00196A11DB11D3FBF4E
:10021000BA2FA92F982F8827BC01CD01620F711D1D
:10022000811D911D42E0660F771F881F991F4A9517
:10023000D1F708951F920F920FB60F9211242F93AA
:100240003F938F939F93AF93BF93809101029091BF
:100250000202A0910302B09104023091000223E057
:10026000230F2D3758F50196A11DB11D20930002D3
:100270008093010290930202A0930302B0930402C0
:100280008091050290910602A0910702B0910802A8
:100290000196A11DB11D8093050290930602A093C3
:1002A0000702B0930802BF91AF919F918F913F9148
:1002B0002F910F900FBE0F901F90189526E8230FD7
:1002C0000296A11DB11DD2CF789484B5826084BD01
:1002D00084B5816084BD85B5826085BD85B581604A
:1002E00085BD80916E00816080936E0010928100C8
:1002F0008091810082608093810080918100816083
:100300008093810080918000816080938000809143
:10031000B10084608093B1008091B00081608093CF
:10032000B000809191008260809391008091910053
:100330008160809391008091900081608093900013
:100340008091A10082608093A1008091A1008160D2
:100350008093A1008091A00081608093A000809193
:10036000210182608093210180912101816080932D
:1003700021018091200181608093200180917A0089
:10038000846080937A0080917A00826080937A0002
:1003900080917A00816080937A0080917A008068F1
:1003A00080937A001092C100E4E9F1E02491EEE438
:1003B000F1E084918823C1F090E0880F991FFC013F
:1003C000E250FF4FC591D491FC01EC51FF4FA59134
:1003D000B4919FB7F8948881E22FE0958E238883AB
:1003E0008C91E823EC939FBF81E8809380008AE0A2
:1003F00080938100E9E6F1E02491E3E2F1E0849169
:10040000882399F090E0880F991FFC01E250FF4F7C
:10041000A591B491FC01EC51FF4F859194918FB758
:10042000F894EC91E22BEC938FBF10E444244A94AF
:1004300093E0592E612C712CC0E0D0E080917B00BC
:10044000877F80937B0010937C0080917A0080648A
:1004500080937A0080917A0086FDFCCFA09178008D
:10046000B09179002FEF30E00E94B802A301920111
:100470000E94680230938900209388000E94F50052
:100480004B015C0182E3C82ED12CE12CF12C0E949F
:10049000F500681979098A099B09683E734081054E
:1004A0009105A8F321E0C21AD108E108F10888EE0D
:1004B000880E83E0981EA11CB11CC114D104E10474
:1004C000F10429F7209709F4B9CF0E940000B6CFB4
:1004D000052E97FB1EF400940E947F0257FD07D063
:1004E0000E94870207FC03D04EF40C947F025095C3
:1004F0004095309521953F4F4F4F5F4F0895909510
:100500008095709561957F4F8F4F9F4F0895A1E221
:100510001A2EAA1BBB1BFD010DC0AA1FBB1FEE1F7D
:10052000FF1FA217B307E407F50720F0A21BB30BC8
:10053000E40BF50B661F771F881F991F1A9469F744
:1005400060957095809590959B01AC01BD01CF01A0
:100550000895A29FB001B39FC001A39F700D811D9C
:100560001124911DB29F700D811D1124911D0895BC
:100570000E94A902B7FF0895821B930B0895F89477
:02058000FFCFAB
:00000001FF
