:020000020000FC
:1000000000C00CEF04B90FE701B959E003B100FFDC
:1000100001C023C001FF13C000C0F0E0E0E6EE0F16
:10002000FF1F33B130FD0C94060031FD0C94060027
:10003000459147FDF2CF42B931D00C941100F0E068
:10004000E0E6EE0FFF1FE50F33B14491EA95E03093
:10005000F6CF42B923D00C942400203009F00DC013
:10006000F0E0E0E8EE0FFF1F35B130FF79F6459183
:1000700047FDB1F342B912D0F7CFD0E0C0E8CC0FC2
:10008000DD1FA50F35B130FF0C9406004491E150FF
:10009000F04047FD91F342B901D0F4CF42E35AE07A
:1000A0006AE06A95F1F75A95E1F74A95D1F7089514
:0A00C000404040404024243010026C
:0A01000079404024021930407924B0
:00000001FF
