:020000020000FC
:020000002AC014
:1000540020C078940FEF01B907B902E004BD0DE7A1
:1000640007BD05E005BD02E000936E0040E01DE71A
:10007400F0E0E0E6EE0FFF1F04E39E2F900F4591A2
:100084005491EA9540955095E91791F342B958B9BE
:0E009400F6CF1A9519F41EE3E395E39518953F
:1000C00037228F0A39008F08392231223D02362229
:1000D00089081E0030253800760176043F0033225F
:1000E0003F0433264D0281083E003011361440157E
:0400F00040090911A9
:00000001FF
