:020000020000FC
:020000002AC014
:0200040055C0E5
:0200080056C0E0
:1000540033C00FEF01B907B990E0789402E004BD12
:1000640006E407BD05E005BD02E000936E0016E45A
:1000740030E003E00DBB0FE00093690091FD06C082
:10008400F2E090FDE8E090FFE0E006C0F4E090FDCF
:10009400E6E090FFE0E000C045915591E25057FD45
:1000A400EDCF4095509542B958B9F6CF01E090276D
:1000B400189502E0902718951A9531F416E402E099
:0A00C40090FDE01B90FFE00F18957F
:0A02000076043E008F0A89083722B9
:080400003F0006001B220F2241
:00000001FF
