:020000020000FC
:020000002AC014
:0200040055C0E5
:0200080056C0E0
:1000540033C00FEF01B907B990E0789402E004BD12
:1000640006E407BD05E005BD02E000936E0016E45A
:1000740030E003E00DBB0FE00093690091FD06C082
:10008400F2E0E0E008E090FDE00F06C0F4E0E0E01C
:1000940004E090FDE00F00C045915491EA9557FDAE
:1000A400EDCF4095509542B958B9F6CF01E090276D
:1000B400189502E0902718951A9531F416E402E099
:0A00C40090FDE01B90FFE00F18957F
:080200003F00301139223326C2
:040400000F220600C1
:00000001FF
