:020000020000FC
:0200000022C01C
:0200040062C0D8
:1000440045C00FEB0093070100931000789401E082
:100054000DBB02E00093690000E0009380000DE313
:100064000093890009E0009388000DE1009381006A
:1000740002E000936F0082E0F4E0E0E045915591E6
:10008400E250E630C1F340955095409308015093F7
:1000940011003091080130742091110020742295D0
:1000A400232B82E0203039F0243039F0203439F029
:1000B400243439F0E3CFA0E0E1CFA1E0DFCFA2E028
:1000C400DDCFA3E0DBCF03E0B02F1895AA9521F490
:0A00D400A12FBA9509F4E80F189562
:08040000003F8098009D119E51
:00000001FF
