:020000020000FC
:0200000022C01C
:0200040061C0D9
:1000440044C00FEB0093070100BB789401E00DBBA3
:1000540002E00093690000E8009380000DE3009340
:10006400890009E0009388000DE00093810002E01C
:1000740000936F00A1E0B1E082E0F4E0E0E045919C
:100084005591E250E830C1F34095509540930801F2
:1000940051BB3091060130742FB120742295232B6B
:1000A40082E0203039F0243039F0203439F024341F
:1000B40039F0E5CFC0E0E3CFC4E0E1CFC8E0DFCF63
:1000C400CCE0DDCF03E0B02F1895C03039F0AA950D
:0E00D40029F4BA9511F4B1E0E80FAC2F18959D
:08040000003FA018009D119EB1
:00000001FF
